{
  "contractName": "Election",
  "abi": [
    {
      "inputs": [],
      "stateMutability": "nonpayable",
      "type": "constructor"
    },
    {
      "inputs": [],
      "name": "admin",
      "outputs": [
        {
          "internalType": "address",
          "name": "",
          "type": "address"
        }
      ],
      "stateMutability": "view",
      "type": "function",
      "constant": true
    },
    {
      "inputs": [
        {
          "internalType": "uint256",
          "name": "",
          "type": "uint256"
        }
      ],
      "name": "candidateDetails",
      "outputs": [
        {
          "internalType": "uint256",
          "name": "candidateId",
          "type": "uint256"
        },
        {
          "internalType": "string",
          "name": "header",
          "type": "string"
        },
        {
          "internalType": "string",
          "name": "slogan",
          "type": "string"
        },
        {
          "internalType": "uint256",
          "name": "voteCount",
          "type": "uint256"
        }
      ],
      "stateMutability": "view",
      "type": "function",
      "constant": true
    },
    {
      "inputs": [
        {
          "internalType": "address",
          "name": "",
          "type": "address"
        }
      ],
      "name": "voterDetails",
      "outputs": [
        {
          "internalType": "address",
          "name": "voterAddress",
          "type": "address"
        },
        {
          "internalType": "string",
          "name": "name",
          "type": "string"
        },
        {
          "internalType": "string",
          "name": "phone",
          "type": "string"
        },
        {
          "internalType": "bool",
          "name": "isVerified",
          "type": "bool"
        },
        {
          "internalType": "bool",
          "name": "hasVoted",
          "type": "bool"
        },
        {
          "internalType": "bool",
          "name": "isRegistered",
          "type": "bool"
        }
      ],
      "stateMutability": "view",
      "type": "function",
      "constant": true
    },
    {
      "inputs": [
        {
          "internalType": "uint256",
          "name": "",
          "type": "uint256"
        }
      ],
      "name": "voters",
      "outputs": [
        {
          "internalType": "address",
          "name": "",
          "type": "address"
        }
      ],
      "stateMutability": "view",
      "type": "function",
      "constant": true
    },
    {
      "inputs": [],
      "name": "getAdmin",
      "outputs": [
        {
          "internalType": "address",
          "name": "",
          "type": "address"
        }
      ],
      "stateMutability": "view",
      "type": "function",
      "constant": true
    },
    {
      "inputs": [
        {
          "internalType": "string",
          "name": "_header",
          "type": "string"
        },
        {
          "internalType": "string",
          "name": "_slogan",
          "type": "string"
        }
      ],
      "name": "addCandidate",
      "outputs": [],
      "stateMutability": "nonpayable",
      "type": "function"
    },
    {
      "inputs": [
        {
          "internalType": "string",
          "name": "_adminName",
          "type": "string"
        },
        {
          "internalType": "string",
          "name": "_adminEmail",
          "type": "string"
        },
        {
          "internalType": "string",
          "name": "_adminTitle",
          "type": "string"
        },
        {
          "internalType": "string",
          "name": "_electionTitle",
          "type": "string"
        },
        {
          "internalType": "string",
          "name": "_organizationTitle",
          "type": "string"
        }
      ],
      "name": "setElectionDetails",
      "outputs": [],
      "stateMutability": "nonpayable",
      "type": "function"
    },
    {
      "inputs": [],
      "name": "getAdminName",
      "outputs": [
        {
          "internalType": "string",
          "name": "",
          "type": "string"
        }
      ],
      "stateMutability": "view",
      "type": "function",
      "constant": true
    },
    {
      "inputs": [],
      "name": "getAdminEmail",
      "outputs": [
        {
          "internalType": "string",
          "name": "",
          "type": "string"
        }
      ],
      "stateMutability": "view",
      "type": "function",
      "constant": true
    },
    {
      "inputs": [],
      "name": "getAdminTitle",
      "outputs": [
        {
          "internalType": "string",
          "name": "",
          "type": "string"
        }
      ],
      "stateMutability": "view",
      "type": "function",
      "constant": true
    },
    {
      "inputs": [],
      "name": "getElectionTitle",
      "outputs": [
        {
          "internalType": "string",
          "name": "",
          "type": "string"
        }
      ],
      "stateMutability": "view",
      "type": "function",
      "constant": true
    },
    {
      "inputs": [],
      "name": "getOrganizationTitle",
      "outputs": [
        {
          "internalType": "string",
          "name": "",
          "type": "string"
        }
      ],
      "stateMutability": "view",
      "type": "function",
      "constant": true
    },
    {
      "inputs": [],
      "name": "getTotalCandidate",
      "outputs": [
        {
          "internalType": "uint256",
          "name": "",
          "type": "uint256"
        }
      ],
      "stateMutability": "view",
      "type": "function",
      "constant": true
    },
    {
      "inputs": [],
      "name": "getTotalVoter",
      "outputs": [
        {
          "internalType": "uint256",
          "name": "",
          "type": "uint256"
        }
      ],
      "stateMutability": "view",
      "type": "function",
      "constant": true
    },
    {
      "inputs": [
        {
          "internalType": "string",
          "name": "_name",
          "type": "string"
        },
        {
          "internalType": "string",
          "name": "_phone",
          "type": "string"
        }
      ],
      "name": "registerAsVoter",
      "outputs": [],
      "stateMutability": "nonpayable",
      "type": "function"
    },
    {
      "inputs": [
        {
          "internalType": "bool",
          "name": "_verifedStatus",
          "type": "bool"
        },
        {
          "internalType": "address",
          "name": "voterAddress",
          "type": "address"
        }
      ],
      "name": "verifyVoter",
      "outputs": [],
      "stateMutability": "nonpayable",
      "type": "function"
    },
    {
      "inputs": [
        {
          "internalType": "uint256",
          "name": "candidateId",
          "type": "uint256"
        }
      ],
      "name": "vote",
      "outputs": [],
      "stateMutability": "nonpayable",
      "type": "function"
    },
    {
      "inputs": [],
      "name": "endElection",
      "outputs": [],
      "stateMutability": "nonpayable",
      "type": "function"
    },
    {
      "inputs": [],
      "name": "getStart",
      "outputs": [
        {
          "internalType": "bool",
          "name": "",
          "type": "bool"
        }
      ],
      "stateMutability": "view",
      "type": "function",
      "constant": true
    },
    {
      "inputs": [],
      "name": "getEnd",
      "outputs": [
        {
          "internalType": "bool",
          "name": "",
          "type": "bool"
        }
      ],
      "stateMutability": "view",
      "type": "function",
      "constant": true
    }
  ],
  "bytecode": "0x608060405234801561001057600080fd5b50336000806101000a81548173ffffffffffffffffffffffffffffffffffffffff021916908373ffffffffffffffffffffffffffffffffffffffff160217905550600060018190555060006002819055506000600360006101000a81548160ff0219169083151502179055506000600360016101000a81548160ff02191690831515021790555061193a806100a66000396000f3fe608060405234801561001057600080fd5b506004361061012c5760003560e01c806364d198a1116100ad578063c5292c6711610071578063c5292c6714610303578063da58c7d914610321578063e173730c14610351578063f851a4401461036f578063fee0d19a1461038d5761012c565b806364d198a11461026d5780636e9960c31461028b578063831318f1146102a95780639f05a36d146102c7578063be081b6f146102e55761012c565b806348343175116100f457806348343175146101c1578063506b8e0a146101df5780635938750d146101fb57806359f78468146102305780636247e5321461023a5761012c565b80630121b93f146101315780630b93400e1461014d5780630e2354cf1461016b578063253e74e21461018957806326541b56146101a5575b600080fd5b61014b6004803603810190610146919061123f565b6103a9565b005b610155610535565b604051610162919061127b565b60405180910390f35b61017361053f565b604051610180919061132f565b60405180910390f35b6101a3600480360381019061019e9190611486565b6105d4565b005b6101bf60048036038101906101ba919061158d565b610726565b005b6101c961082b565b6040516101d6919061132f565b60405180910390f35b6101f960048036038101906101f4919061169b565b6108c0565b005b610215600480360381019061021091906116db565b610976565b60405161022796959493929190611726565b60405180910390f35b610238610b09565b005b610254600480360381019061024f919061123f565b610b99565b6040516102649493929190611795565b60405180910390f35b610275610cd9565b604051610282919061127b565b60405180910390f35b610293610ce3565b6040516102a091906117e8565b60405180910390f35b6102b1610d0c565b6040516102be919061132f565b60405180910390f35b6102cf610da1565b6040516102dc9190611803565b60405180910390f35b6102ed610db8565b6040516102fa919061132f565b60405180910390f35b61030b610e4d565b6040516103189190611803565b60405180910390f35b61033b6004803603810190610336919061123f565b610e64565b60405161034891906117e8565b60405180910390f35b610359610ea3565b604051610366919061132f565b60405180910390f35b610377610f38565b60405161038491906117e8565b60405180910390f35b6103a760048036038101906103a2919061158d565b610f5c565b005b60001515600b60003373ffffffffffffffffffffffffffffffffffffffff1673ffffffffffffffffffffffffffffffffffffffff16815260200190815260200160002060030160019054906101000a900460ff1615151461040957600080fd5b60011515600b60003373ffffffffffffffffffffffffffffffffffffffff1673ffffffffffffffffffffffffffffffffffffffff16815260200190815260200160002060030160009054906101000a900460ff1615151461046957600080fd5b60011515600360009054906101000a900460ff1615151461048957600080fd5b60001515600360019054906101000a900460ff161515146104a957600080fd5b60016004600083815260200190815260200160002060030160008282546104d0919061184d565b925050819055506001600b60003373ffffffffffffffffffffffffffffffffffffffff1673ffffffffffffffffffffffffffffffffffffffff16815260200190815260200160002060030160016101000a81548160ff02191690831515021790555050565b6000600254905090565b606060056000018054610551906118d2565b80601f016020809104026020016040519081016040528092919081815260200182805461057d906118d2565b80156105ca5780601f1061059f576101008083540402835291602001916105ca565b820191906000526020600020905b8154815290600101906020018083116105ad57829003601f168201915b5050505050905090565b60008054906101000a900473ffffffffffffffffffffffffffffffffffffffff1673ffffffffffffffffffffffffffffffffffffffff163373ffffffffffffffffffffffffffffffffffffffff161461062c57600080fd5b6040518060a001604052808681526020018581526020018481526020018381526020018281525060056000820151816000019080519060200190610671929190611152565b50602082015181600101908051906020019061068e929190611152565b5060408201518160020190805190602001906106ab929190611152565b5060608201518160030190805190602001906106c8929190611152565b5060808201518160040190805190602001906106e5929190611152565b509050506001600360006101000a81548160ff0219169083151502179055506000600360016101000a81548160ff0219169083151502179055505050505050565b60008054906101000a900473ffffffffffffffffffffffffffffffffffffffff1673ffffffffffffffffffffffffffffffffffffffff163373ffffffffffffffffffffffffffffffffffffffff161461077e57600080fd5b60006040518060800160405280600154815260200184815260200183815260200160008152509050806004600060015481526020019081526020016000206000820151816000015560208201518160010190805190602001906107e2929190611152565b5060408201518160020190805190602001906107ff929190611152565b5060608201518160030155905050600180600082825461081f919061184d565b92505081905550505050565b60606005600401805461083d906118d2565b80601f0160208091040260200160405190810160405280929190818152602001828054610869906118d2565b80156108b65780601f1061088b576101008083540402835291602001916108b6565b820191906000526020600020905b81548152906001019060200180831161089957829003601f168201915b5050505050905090565b60008054906101000a900473ffffffffffffffffffffffffffffffffffffffff1673ffffffffffffffffffffffffffffffffffffffff163373ffffffffffffffffffffffffffffffffffffffff161461091857600080fd5b81600b60008373ffffffffffffffffffffffffffffffffffffffff1673ffffffffffffffffffffffffffffffffffffffff16815260200190815260200160002060030160006101000a81548160ff0219169083151502179055505050565b600b6020528060005260406000206000915090508060000160009054906101000a900473ffffffffffffffffffffffffffffffffffffffff16908060010180546109bf906118d2565b80601f01602080910402602001604051908101604052809291908181526020018280546109eb906118d2565b8015610a385780601f10610a0d57610100808354040283529160200191610a38565b820191906000526020600020905b815481529060010190602001808311610a1b57829003601f168201915b505050505090806002018054610a4d906118d2565b80601f0160208091040260200160405190810160405280929190818152602001828054610a79906118d2565b8015610ac65780601f10610a9b57610100808354040283529160200191610ac6565b820191906000526020600020905b815481529060010190602001808311610aa957829003601f168201915b5050505050908060030160009054906101000a900460ff16908060030160019054906101000a900460ff16908060030160029054906101000a900460ff16905086565b60008054906101000a900473ffffffffffffffffffffffffffffffffffffffff1673ffffffffffffffffffffffffffffffffffffffff163373ffffffffffffffffffffffffffffffffffffffff1614610b6157600080fd5b6001600360016101000a81548160ff0219169083151502179055506000600360006101000a81548160ff021916908315150217905550565b6004602052806000526040600020600091509050806000015490806001018054610bc2906118d2565b80601f0160208091040260200160405190810160405280929190818152602001828054610bee906118d2565b8015610c3b5780601f10610c1057610100808354040283529160200191610c3b565b820191906000526020600020905b815481529060010190602001808311610c1e57829003601f168201915b505050505090806002018054610c50906118d2565b80601f0160208091040260200160405190810160405280929190818152602001828054610c7c906118d2565b8015610cc95780601f10610c9e57610100808354040283529160200191610cc9565b820191906000526020600020905b815481529060010190602001808311610cac57829003601f168201915b5050505050908060030154905084565b6000600154905090565b60008060009054906101000a900473ffffffffffffffffffffffffffffffffffffffff16905090565b606060056001018054610d1e906118d2565b80601f0160208091040260200160405190810160405280929190818152602001828054610d4a906118d2565b8015610d975780601f10610d6c57610100808354040283529160200191610d97565b820191906000526020600020905b815481529060010190602001808311610d7a57829003601f168201915b5050505050905090565b6000600360019054906101000a900460ff16905090565b606060056002018054610dca906118d2565b80601f0160208091040260200160405190810160405280929190818152602001828054610df6906118d2565b8015610e435780601f10610e1857610100808354040283529160200191610e43565b820191906000526020600020905b815481529060010190602001808311610e2657829003601f168201915b5050505050905090565b6000600360009054906101000a900460ff16905090565b600a8181548110610e7457600080fd5b906000526020600020016000915054906101000a900473ffffffffffffffffffffffffffffffffffffffff1681565b606060056003018054610eb5906118d2565b80601f0160208091040260200160405190810160405280929190818152602001828054610ee1906118d2565b8015610f2e5780601f10610f0357610100808354040283529160200191610f2e565b820191906000526020600020905b815481529060010190602001808311610f1157829003601f168201915b5050505050905090565b60008054906101000a900473ffffffffffffffffffffffffffffffffffffffff1681565b60006040518060c001604052803373ffffffffffffffffffffffffffffffffffffffff16815260200184815260200183815260200160001515815260200160001515815260200160011515815250905080600b60003373ffffffffffffffffffffffffffffffffffffffff1673ffffffffffffffffffffffffffffffffffffffff16815260200190815260200160002060008201518160000160006101000a81548173ffffffffffffffffffffffffffffffffffffffff021916908373ffffffffffffffffffffffffffffffffffffffff160217905550602082015181600101908051906020019061104f929190611152565b50604082015181600201908051906020019061106c929190611152565b5060608201518160030160006101000a81548160ff02191690831515021790555060808201518160030160016101000a81548160ff02191690831515021790555060a08201518160030160026101000a81548160ff021916908315150217905550905050600a339080600181540180825580915050600190039060005260206000200160009091909190916101000a81548173ffffffffffffffffffffffffffffffffffffffff021916908373ffffffffffffffffffffffffffffffffffffffff160217905550600160026000828254611146919061184d565b92505081905550505050565b82805461115e906118d2565b90600052602060002090601f01602090048101928261118057600085556111c7565b82601f1061119957805160ff19168380011785556111c7565b828001600101855582156111c7579182015b828111156111c65782518255916020019190600101906111ab565b5b5090506111d491906111d8565b5090565b5b808211156111f15760008160009055506001016111d9565b5090565b6000604051905090565b600080fd5b600080fd5b6000819050919050565b61121c81611209565b811461122757600080fd5b50565b60008135905061123981611213565b92915050565b600060208284031215611255576112546111ff565b5b60006112638482850161122a565b91505092915050565b61127581611209565b82525050565b6000602082019050611290600083018461126c565b92915050565b600081519050919050565b600082825260208201905092915050565b60005b838110156112d05780820151818401526020810190506112b5565b838111156112df576000848401525b50505050565b6000601f19601f8301169050919050565b600061130182611296565b61130b81856112a1565b935061131b8185602086016112b2565b611324816112e5565b840191505092915050565b6000602082019050818103600083015261134981846112f6565b905092915050565b600080fd5b600080fd5b7f4e487b7100000000000000000000000000000000000000000000000000000000600052604160045260246000fd5b611393826112e5565b810181811067ffffffffffffffff821117156113b2576113b161135b565b5b80604052505050565b60006113c56111f5565b90506113d1828261138a565b919050565b600067ffffffffffffffff8211156113f1576113f061135b565b5b6113fa826112e5565b9050602081019050919050565b82818337600083830152505050565b6000611429611424846113d6565b6113bb565b90508281526020810184848401111561144557611444611356565b5b611450848285611407565b509392505050565b600082601f83011261146d5761146c611351565b5b813561147d848260208601611416565b91505092915050565b600080600080600060a086880312156114a2576114a16111ff565b5b600086013567ffffffffffffffff8111156114c0576114bf611204565b5b6114cc88828901611458565b955050602086013567ffffffffffffffff8111156114ed576114ec611204565b5b6114f988828901611458565b945050604086013567ffffffffffffffff81111561151a57611519611204565b5b61152688828901611458565b935050606086013567ffffffffffffffff81111561154757611546611204565b5b61155388828901611458565b925050608086013567ffffffffffffffff81111561157457611573611204565b5b61158088828901611458565b9150509295509295909350565b600080604083850312156115a4576115a36111ff565b5b600083013567ffffffffffffffff8111156115c2576115c1611204565b5b6115ce85828601611458565b925050602083013567ffffffffffffffff8111156115ef576115ee611204565b5b6115fb85828601611458565b9150509250929050565b60008115159050919050565b61161a81611605565b811461162557600080fd5b50565b60008135905061163781611611565b92915050565b600073ffffffffffffffffffffffffffffffffffffffff82169050919050565b60006116688261163d565b9050919050565b6116788161165d565b811461168357600080fd5b50565b6000813590506116958161166f565b92915050565b600080604083850312156116b2576116b16111ff565b5b60006116c085828601611628565b92505060206116d185828601611686565b9150509250929050565b6000602082840312156116f1576116f06111ff565b5b60006116ff84828501611686565b91505092915050565b6117118161165d565b82525050565b61172081611605565b82525050565b600060c08201905061173b6000830189611708565b818103602083015261174d81886112f6565b9050818103604083015261176181876112f6565b90506117706060830186611717565b61177d6080830185611717565b61178a60a0830184611717565b979650505050505050565b60006080820190506117aa600083018761126c565b81810360208301526117bc81866112f6565b905081810360408301526117d081856112f6565b90506117df606083018461126c565b95945050505050565b60006020820190506117fd6000830184611708565b92915050565b60006020820190506118186000830184611717565b92915050565b7f4e487b7100000000000000000000000000000000000000000000000000000000600052601160045260246000fd5b600061185882611209565b915061186383611209565b9250827fffffffffffffffffffffffffffffffffffffffffffffffffffffffffffffffff038211156118985761189761181e565b5b828201905092915050565b7f4e487b7100000000000000000000000000000000000000000000000000000000600052602260045260246000fd5b600060028204905060018216806118ea57607f821691505b602082108114156118fe576118fd6118a3565b5b5091905056fea2646970667358221220514d0b4ae9879c5233bf3a8a3aa8594af9bd657bbe0b4a5c08abe1f7b449cccd64736f6c634300080c0033",
  "immutableReferences": {},
  "source": "// SPDX-License-Identifier: MIT\npragma solidity >=0.4.21 <0.9.0;\n\ncontract Election {\n    address public admin;\n    uint256 candidateCount;\n    uint256 voterCount;\n    bool start;\n    bool end;\n\n    constructor() public {\n        // Initilizing default values\n        admin = msg.sender;\n        candidateCount = 0;\n        voterCount = 0;\n        start = false;\n        end = false;\n    }\n\n    function getAdmin() public view returns (address) {\n        // Returns account address used to deploy contract (i.e. admin)\n        return admin;\n    }\n\n    modifier onlyAdmin() {\n        // Modifier for only admin access\n        require(msg.sender == admin);\n        _;\n    }\n    // Modeling a candidate\n    struct Candidate {\n        uint256 candidateId;\n        string header;\n        string slogan;\n        uint256 voteCount;\n    }\n    mapping(uint256 => Candidate) public candidateDetails;\n\n    // Adding new candidates\n    function addCandidate(string memory _header, string memory _slogan)\n        public\n        // Only admin can add\n        onlyAdmin\n    {\n        Candidate memory newCandidate =\n            Candidate({\n                candidateId: candidateCount,\n                header: _header,\n                slogan: _slogan,\n                voteCount: 0\n            });\n        candidateDetails[candidateCount] = newCandidate;\n        candidateCount += 1;\n    }\n\n    // Modeling a Election Details\n    struct ElectionDetails {\n        string adminName;\n        string adminEmail;\n        string adminTitle;\n        string electionTitle;\n        string organizationTitle;\n    }\n    ElectionDetails electionDetails;\n\n    function setElectionDetails(\n        string memory _adminName,\n        string memory _adminEmail,\n        string memory _adminTitle,\n        string memory _electionTitle,\n        string memory _organizationTitle\n    )\n        public\n        // Only admin can add\n        onlyAdmin\n    {\n        electionDetails = ElectionDetails(\n            _adminName,\n            _adminEmail,\n            _adminTitle,\n            _electionTitle,\n            _organizationTitle\n        );\n        start = true;\n        end = false;\n    }\n\n    // Get Elections details\n    function getAdminName() public view returns (string memory) {\n        return electionDetails.adminName;\n    }\n\n    function getAdminEmail() public view returns (string memory) {\n        return electionDetails.adminEmail;\n    }\n\n    function getAdminTitle() public view returns (string memory) {\n        return electionDetails.adminTitle;\n    }\n\n    function getElectionTitle() public view returns (string memory) {\n        return electionDetails.electionTitle;\n    }\n\n    function getOrganizationTitle() public view returns (string memory) {\n        return electionDetails.organizationTitle;\n    }\n\n    // Get candidates count\n    function getTotalCandidate() public view returns (uint256) {\n        // Returns total number of candidates\n        return candidateCount;\n    }\n\n    // Get voters count\n    function getTotalVoter() public view returns (uint256) {\n        // Returns total number of voters\n        return voterCount;\n    }\n\n    // Modeling a voter\n    struct Voter {\n        address voterAddress;\n        string name;\n        string phone;\n        bool isVerified;\n        bool hasVoted;\n        bool isRegistered;\n    }\n    address[] public voters; // Array of address to store address of voters\n    mapping(address => Voter) public voterDetails;\n\n    // Request to be added as voter\n    function registerAsVoter(string memory _name, string memory _phone) public {\n        Voter memory newVoter =\n            Voter({\n                voterAddress: msg.sender,\n                name: _name,\n                phone: _phone,\n                hasVoted: false,\n                isVerified: false,\n                isRegistered: true\n            });\n        voterDetails[msg.sender] = newVoter;\n        voters.push(msg.sender);\n        voterCount += 1;\n    }\n\n    // Verify voter\n    function verifyVoter(bool _verifedStatus, address voterAddress)\n        public\n        // Only admin can verify\n        onlyAdmin\n    {\n        voterDetails[voterAddress].isVerified = _verifedStatus;\n    }\n\n    // Vote\n    function vote(uint256 candidateId) public {\n        require(voterDetails[msg.sender].hasVoted == false);\n        require(voterDetails[msg.sender].isVerified == true);\n        require(start == true);\n        require(end == false);\n        candidateDetails[candidateId].voteCount += 1;\n        voterDetails[msg.sender].hasVoted = true;\n    }\n\n    // End election\n    function endElection() public onlyAdmin {\n        end = true;\n        start = false;\n    }\n\n    // Get election start and end values\n    function getStart() public view returns (bool) {\n        return start;\n    }\n\n    function getEnd() public view returns (bool) {\n        return end;\n    }\n}\n",
  "sourcePath": "C:\\election\\contracts\\Election.sol",
  "compiler": {
    "name": "solc",
    "version": "0.8.12+commit.f00d7308.Emscripten.clang"
  },
  "schemaVersion": "3.4.6",
  "updatedAt": "2022-05-27T11:53:33.287Z",
  "networkType": "ethereum",
  "devdoc": {
    "kind": "dev",
    "methods": {},
    "version": 1
  },
  "userdoc": {
    "kind": "user",
    "methods": {},
    "version": 1
  }
}